:020000000100FD
:020001000100FC
:020002000100FB
:020003000100FA
:020004000100F9
:020005000100F8
:020006000100F7
:020007000100F6
:020008000100F5
:020009000100F4
:02000A000100F3
:02000B000100F2
:02000C000100F1
:02000D000100F0
:02000E000100EF
:02000F000100EE
:020010000100ED
:020011000100EC
:020012000100EB
:020013000100EA
:020014000100E9
:020015000100E8
:020016000100E7
:020017000100E6
:020018000100E5
:020019000100E4
:02001A000100E3
:02001B000100E2
:02001C000100E1
:02001D000100E0
:02001E000100DF
:02001F000100DE
:020020000100DD
:020021000100DC
:020022000100DB
:020023000100DA
:020024000100D9
:020025000100D8
:020026000100D7
:020027000100D6
:020028000100D5
:020029000100D4
:02002A000100D3
:02002B000100D2
:02002C000100D1
:02002D000100D0
:02002E000100CF
:02002F000100CE
:020030000100CD
:020031000100CC
:020032000100CB
:020033000100CA
:020034000100C9
:020035000100C8
:020036000100C7
:020037000100C6
:020038000100C5
:020039000100C4
:02003A000100C3
:02003B000100C2
:02003C000100C1
:02003D000100C0
:02003E000100BF
:02003F000100BE
:020040000100BD
:020041000100BC
:020042000100BB
:020043000100BA
:020044000100B9
:020045000100B8
:020046000100B7
:020047000100B6
:020048000100B5
:020049000100B4
:02004A000100B3
:02004B000100B2
:02004C000100B1
:02004D000100B0
:02004E000100AF
:02004F000100AE
:020050000100AD
:020051000100AC
:020052000100AB
:020053000100AA
:020054000100A9
:020055000100A8
:020056000100A7
:020057000100A6
:020058000100A5
:020059000100A4
:02005A000100A3
:02005B000100A2
:02005C000100A1
:02005D000100A0
:02005E0001009F
:02005F0001009E
:0200600001009D
:0200610001009C
:0200620001009B
:0200630001009A
:02006400010099
:02006500010098
:02006600010097
:02006700010096
:02006800010095
:02006900010094
:02006A00010093
:02006B00010092
:02006C00010091
:02006D00010090
:02006E0001008F
:02006F0001008E
:0200700001008D
:0200710001008C
:0200720001008B
:0200730001008A
:02007400010089
:02007500010088
:02007600010087
:02007700010086
:02007800010085
:02007900010084
:02007A00010083
:02007B00010082
:02007C00010081
:02007D00010080
:02007E0001007F
:02007F0001007E
:00000001ff